{
  "contractName": "GovernorAlpha",
  "abi": [
    {
      "inputs": [
        {
          "internalType": "address",
          "name": "timelock_",
          "type": "address"
        },
        {
          "internalType": "address",
          "name": "dragonballz_",
          "type": "address"
        }
      ],
      "payable": false,
      "stateMutability": "nonpayable",
      "type": "constructor"
    },
    {
      "anonymous": false,
      "inputs": [
        {
          "indexed": false,
          "internalType": "uint256",
          "name": "id",
          "type": "uint256"
        }
      ],
      "name": "ProposalCanceled",
      "type": "event"
    },
    {
      "anonymous": false,
      "inputs": [
        {
          "indexed": false,
          "internalType": "uint256",
          "name": "id",
          "type": "uint256"
        },
        {
          "indexed": false,
          "internalType": "address",
          "name": "proposer",
          "type": "address"
        },
        {
          "indexed": false,
          "internalType": "address[]",
          "name": "targets",
          "type": "address[]"
        },
        {
          "indexed": false,
          "internalType": "uint256[]",
          "name": "values",
          "type": "uint256[]"
        },
        {
          "indexed": false,
          "internalType": "string[]",
          "name": "signatures",
          "type": "string[]"
        },
        {
          "indexed": false,
          "internalType": "bytes[]",
          "name": "calldatas",
          "type": "bytes[]"
        },
        {
          "indexed": false,
          "internalType": "uint256",
          "name": "startBlock",
          "type": "uint256"
        },
        {
          "indexed": false,
          "internalType": "uint256",
          "name": "endBlock",
          "type": "uint256"
        },
        {
          "indexed": false,
          "internalType": "string",
          "name": "description",
          "type": "string"
        }
      ],
      "name": "ProposalCreated",
      "type": "event"
    },
    {
      "anonymous": false,
      "inputs": [
        {
          "indexed": false,
          "internalType": "uint256",
          "name": "id",
          "type": "uint256"
        }
      ],
      "name": "ProposalExecuted",
      "type": "event"
    },
    {
      "anonymous": false,
      "inputs": [
        {
          "indexed": false,
          "internalType": "uint256",
          "name": "id",
          "type": "uint256"
        },
        {
          "indexed": false,
          "internalType": "uint256",
          "name": "eta",
          "type": "uint256"
        }
      ],
      "name": "ProposalQueued",
      "type": "event"
    },
    {
      "anonymous": false,
      "inputs": [
        {
          "indexed": false,
          "internalType": "address",
          "name": "voter",
          "type": "address"
        },
        {
          "indexed": false,
          "internalType": "uint256",
          "name": "proposalId",
          "type": "uint256"
        },
        {
          "indexed": false,
          "internalType": "bool",
          "name": "support",
          "type": "bool"
        },
        {
          "indexed": false,
          "internalType": "uint256",
          "name": "votes",
          "type": "uint256"
        }
      ],
      "name": "VoteCast",
      "type": "event"
    },
    {
      "constant": true,
      "inputs": [],
      "name": "BALLOT_TYPEHASH",
      "outputs": [
        {
          "internalType": "bytes32",
          "name": "",
          "type": "bytes32"
        }
      ],
      "payable": false,
      "stateMutability": "view",
      "type": "function"
    },
    {
      "constant": true,
      "inputs": [],
      "name": "DOMAIN_TYPEHASH",
      "outputs": [
        {
          "internalType": "bytes32",
          "name": "",
          "type": "bytes32"
        }
      ],
      "payable": false,
      "stateMutability": "view",
      "type": "function"
    },
    {
      "constant": true,
      "inputs": [],
      "name": "guardian",
      "outputs": [
        {
          "internalType": "address",
          "name": "",
          "type": "address"
        }
      ],
      "payable": false,
      "stateMutability": "view",
      "type": "function"
    },
    {
      "constant": true,
      "inputs": [],
      "name": "dragonballz",
      "outputs": [
        {
          "internalType": "contract DRAGONBALLZInterface",
          "name": "",
          "type": "address"
        }
      ],
      "payable": false,
      "stateMutability": "view",
      "type": "function"
    },
    {
      "constant": true,
      "inputs": [
        {
          "internalType": "address",
          "name": "",
          "type": "address"
        }
      ],
      "name": "latestProposalIds",
      "outputs": [
        {
          "internalType": "uint256",
          "name": "",
          "type": "uint256"
        }
      ],
      "payable": false,
      "stateMutability": "view",
      "type": "function"
    },
    {
      "constant": true,
      "inputs": [],
      "name": "name",
      "outputs": [
        {
          "internalType": "string",
          "name": "",
          "type": "string"
        }
      ],
      "payable": false,
      "stateMutability": "view",
      "type": "function"
    },
    {
      "constant": true,
      "inputs": [],
      "name": "proposalCount",
      "outputs": [
        {
          "internalType": "uint256",
          "name": "",
          "type": "uint256"
        }
      ],
      "payable": false,
      "stateMutability": "view",
      "type": "function"
    },
    {
      "constant": true,
      "inputs": [
        {
          "internalType": "uint256",
          "name": "",
          "type": "uint256"
        }
      ],
      "name": "proposals",
      "outputs": [
        {
          "internalType": "uint256",
          "name": "id",
          "type": "uint256"
        },
        {
          "internalType": "address",
          "name": "proposer",
          "type": "address"
        },
        {
          "internalType": "uint256",
          "name": "eta",
          "type": "uint256"
        },
        {
          "internalType": "uint256",
          "name": "startBlock",
          "type": "uint256"
        },
        {
          "internalType": "uint256",
          "name": "endBlock",
          "type": "uint256"
        },
        {
          "internalType": "uint256",
          "name": "forVotes",
          "type": "uint256"
        },
        {
          "internalType": "uint256",
          "name": "againstVotes",
          "type": "uint256"
        },
        {
          "internalType": "bool",
          "name": "canceled",
          "type": "bool"
        },
        {
          "internalType": "bool",
          "name": "executed",
          "type": "bool"
        }
      ],
      "payable": false,
      "stateMutability": "view",
      "type": "function"
    },
    {
      "constant": true,
      "inputs": [],
      "name": "timelock",
      "outputs": [
        {
          "internalType": "contract TimelockInterface",
          "name": "",
          "type": "address"
        }
      ],
      "payable": false,
      "stateMutability": "view",
      "type": "function"
    },
    {
      "constant": true,
      "inputs": [],
      "name": "quorumVotes",
      "outputs": [
        {
          "internalType": "uint256",
          "name": "",
          "type": "uint256"
        }
      ],
      "payable": false,
      "stateMutability": "view",
      "type": "function"
    },
    {
      "constant": true,
      "inputs": [],
      "name": "proposalThreshold",
      "outputs": [
        {
          "internalType": "uint256",
          "name": "",
          "type": "uint256"
        }
      ],
      "payable": false,
      "stateMutability": "view",
      "type": "function"
    },
    {
      "constant": true,
      "inputs": [],
      "name": "proposalMaxOperations",
      "outputs": [
        {
          "internalType": "uint256",
          "name": "",
          "type": "uint256"
        }
      ],
      "payable": false,
      "stateMutability": "pure",
      "type": "function"
    },
    {
      "constant": true,
      "inputs": [],
      "name": "votingDelay",
      "outputs": [
        {
          "internalType": "uint256",
          "name": "",
          "type": "uint256"
        }
      ],
      "payable": false,
      "stateMutability": "pure",
      "type": "function"
    },
    {
      "constant": true,
      "inputs": [],
      "name": "votingPeriod",
      "outputs": [
        {
          "internalType": "uint256",
          "name": "",
          "type": "uint256"
        }
      ],
      "payable": false,
      "stateMutability": "pure",
      "type": "function"
    },
    {
      "constant": false,
      "inputs": [
        {
          "internalType": "address[]",
          "name": "targets",
          "type": "address[]"
        },
        {
          "internalType": "uint256[]",
          "name": "values",
          "type": "uint256[]"
        },
        {
          "internalType": "string[]",
          "name": "signatures",
          "type": "string[]"
        },
        {
          "internalType": "bytes[]",
          "name": "calldatas",
          "type": "bytes[]"
        },
        {
          "internalType": "string",
          "name": "description",
          "type": "string"
        }
      ],
      "name": "propose",
      "outputs": [
        {
          "internalType": "uint256",
          "name": "",
          "type": "uint256"
        }
      ],
      "payable": false,
      "stateMutability": "nonpayable",
      "type": "function"
    },
    {
      "constant": false,
      "inputs": [
        {
          "internalType": "uint256",
          "name": "proposalId",
          "type": "uint256"
        }
      ],
      "name": "queue",
      "outputs": [],
      "payable": false,
      "stateMutability": "nonpayable",
      "type": "function"
    },
    {
      "constant": false,
      "inputs": [
        {
          "internalType": "uint256",
          "name": "proposalId",
          "type": "uint256"
        }
      ],
      "name": "execute",
      "outputs": [],
      "payable": true,
      "stateMutability": "payable",
      "type": "function"
    },
    {
      "constant": false,
      "inputs": [
        {
          "internalType": "uint256",
          "name": "proposalId",
          "type": "uint256"
        }
      ],
      "name": "cancel",
      "outputs": [],
      "payable": false,
      "stateMutability": "nonpayable",
      "type": "function"
    },
    {
      "constant": true,
      "inputs": [
        {
          "internalType": "uint256",
          "name": "proposalId",
          "type": "uint256"
        }
      ],
      "name": "getActions",
      "outputs": [
        {
          "internalType": "address[]",
          "name": "targets",
          "type": "address[]"
        },
        {
          "internalType": "uint256[]",
          "name": "values",
          "type": "uint256[]"
        },
        {
          "internalType": "string[]",
          "name": "signatures",
          "type": "string[]"
        },
        {
          "internalType": "bytes[]",
          "name": "calldatas",
          "type": "bytes[]"
        }
      ],
      "payable": false,
      "stateMutability": "view",
      "type": "function"
    },
    {
      "constant": true,
      "inputs": [
        {
          "internalType": "uint256",
          "name": "proposalId",
          "type": "uint256"
        },
        {
          "internalType": "address",
          "name": "voter",
          "type": "address"
        }
      ],
      "name": "getReceipt",
      "outputs": [
        {
          "components": [
            {
              "internalType": "bool",
              "name": "hasVoted",
              "type": "bool"
            },
            {
              "internalType": "bool",
              "name": "support",
              "type": "bool"
            },
            {
              "internalType": "uint256",
              "name": "votes",
              "type": "uint256"
            }
          ],
          "internalType": "struct GovernorAlpha.Receipt",
          "name": "",
          "type": "tuple"
        }
      ],
      "payable": false,
      "stateMutability": "view",
      "type": "function"
    },
    {
      "constant": true,
      "inputs": [
        {
          "internalType": "uint256",
          "name": "proposalId",
          "type": "uint256"
        }
      ],
      "name": "state",
      "outputs": [
        {
          "internalType": "enum GovernorAlpha.ProposalState",
          "name": "",
          "type": "uint8"
        }
      ],
      "payable": false,
      "stateMutability": "view",
      "type": "function"
    },
    {
      "constant": false,
      "inputs": [
        {
          "internalType": "uint256",
          "name": "proposalId",
          "type": "uint256"
        },
        {
          "internalType": "bool",
          "name": "support",
          "type": "bool"
        }
      ],
      "name": "castVote",
      "outputs": [],
      "payable": false,
      "stateMutability": "nonpayable",
      "type": "function"
    },
    {
      "constant": false,
      "inputs": [
        {
          "internalType": "uint256",
          "name": "proposalId",
          "type": "uint256"
        },
        {
          "internalType": "bool",
          "name": "support",
          "type": "bool"
        },
        {
          "internalType": "uint8",
          "name": "v",
          "type": "uint8"
        },
        {
          "internalType": "bytes32",
          "name": "r",
          "type": "bytes32"
        },
        {
          "internalType": "bytes32",
          "name": "s",
          "type": "bytes32"
        }
      ],
      "name": "castVoteBySig",
      "outputs": [],
      "payable": false,
      "stateMutability": "nonpayable",
      "type": "function"
    },
    {
      "constant": false,
      "inputs": [],
      "name": "__acceptAdmin",
      "outputs": [],
      "payable": false,
      "stateMutability": "nonpayable",
      "type": "function"
    },
    {
      "constant": false,
      "inputs": [],
      "name": "__abdicate",
      "outputs": [],
      "payable": false,
      "stateMutability": "nonpayable",
      "type": "function"
    },
    {
      "constant": false,
      "inputs": [
        {
          "internalType": "address",
          "name": "newPendingAdmin",
          "type": "address"
        },
        {
          "internalType": "uint256",
          "name": "eta",
          "type": "uint256"
        }
      ],
      "name": "__queueSetTimelockPendingAdmin",
      "outputs": [],
      "payable": false,
      "stateMutability": "nonpayable",
      "type": "function"
    },
    {
      "constant": false,
      "inputs": [
        {
          "internalType": "address",
          "name": "newPendingAdmin",
          "type": "address"
        },
        {
          "internalType": "uint256",
          "name": "eta",
          "type": "uint256"
        }
      ],
      "name": "__executeSetTimelockPendingAdmin",
      "outputs": [],
      "payable": false,
      "stateMutability": "nonpayable",
      "type": "function"
    }
  ],
  "bytecode": "0x60806040523480156200001157600080fd5b50604051620040cc380380620040cc833981016040819052620000349162000089565b600080546001600160a01b039384166001600160a01b0319918216179091556001805492909316918116919091179091556002805490911633179055620000f4565b80516200008381620000da565b92915050565b600080604083850312156200009d57600080fd5b6000620000ab858562000076565b9250506020620000be8582860162000076565b9150509250929050565b60006001600160a01b03821662000083565b620000e581620000c8565b8114620000f157600080fd5b50565b613fc880620001046000396000f3fe6080604052600436106101ac5760003560e01c80634634c61f116100ec578063d33219b41161008a578063ddf0b00911610064578063ddf0b00914610473578063deaaa7cc14610493578063e23a9a52146104a8578063fe0d94c1146104d5576101ac565b8063d33219b414610429578063da35c6641461043e578063da95691a14610453576101ac565b806391500671116100c657806391500671146103bd5780639afd15b4146103dd578063b58131b0146103ff578063b9a6196114610414576101ac565b80634634c61f14610373578063760fbc13146103935780637bdbe4d0146103a8576101ac565b806321f43e42116101595780633932abb1116101335780633932abb1146102ef5780633e4f49e61461030457806340e58ee514610331578063452a932014610351576101ac565b806321f43e421461028a57806324bc1a64146102aa578063328dd982146102bf576101ac565b806315373e3d1161018a57806315373e3d1461023357806317977c611461025557806320606b7014610275576101ac565b8063013cf08b146101b157806302a251a3146101ef57806306fdde0314610211575b600080fd5b3480156101bd57600080fd5b506101d16101cc366004612a76565b6104e8565b6040516101e699989796959493929190613d4a565b60405180910390f35b3480156101fb57600080fd5b5061020461054e565b6040516101e69190613a74565b34801561021d57600080fd5b50610226610555565b6040516101e69190613b23565b34801561023f57600080fd5b5061025361024e366004612ac4565b61058e565b005b34801561026157600080fd5b506102046102703660046128b9565b61059d565b34801561028157600080fd5b506102046105af565b34801561029657600080fd5b506102536102a53660046128df565b6105c6565b3480156102b657600080fd5b506102046106ff565b3480156102cb57600080fd5b506102df6102da366004612a76565b6107ba565b6040516101e69493929190613a27565b3480156102fb57600080fd5b50610204610a92565b34801561031057600080fd5b5061032461031f366004612a76565b610a97565b6040516101e69190613b15565b34801561033d57600080fd5b5061025361034c366004612a76565b610c59565b34801561035d57600080fd5b50610366610f3f565b6040516101e691906138f9565b34801561037f57600080fd5b5061025361038e366004612af4565b610f5b565b34801561039f57600080fd5b5061025361113d565b3480156103b457600080fd5b506102046111b8565b3480156103c957600080fd5b506102536103d83660046128df565b6111bd565b3480156103e957600080fd5b506103f26112c6565b6040516101e69190613b07565b34801561040b57600080fd5b506102046112e2565b34801561042057600080fd5b50610253611387565b34801561043557600080fd5b506103f2611459565b34801561044a57600080fd5b50610204611475565b34801561045f57600080fd5b5061020461046e366004612919565b61147b565b34801561047f57600080fd5b5061025361048e366004612a76565b61197e565b34801561049f57600080fd5b50610204611c71565b3480156104b457600080fd5b506104c86104c3366004612a94565b611c7d565b6040516101e69190613c94565b6102536104e3366004612a76565b611cee565b6004602052600090815260409020805460018201546002830154600784015460088501546009860154600a870154600b90970154959673ffffffffffffffffffffffffffffffffffffffff90951695939492939192909160ff8082169161010090041689565b6143805b90565b6040518060400160405280601981526020017f4b4153534941484f4d4520476f7665726e6f7220416c7068610000000000000081525081565b610599338383611f73565b5050565b60056020526000908152604090205481565b6040516105bb906138e3565b604051809103902081565b60025473ffffffffffffffffffffffffffffffffffffffff163314610620576040517f08c379a000000000000000000000000000000000000000000000000000000000815260040161061790613b74565b60405180910390fd5b6000805460405173ffffffffffffffffffffffffffffffffffffffff90911691630825f38f918391906106579087906020016138f9565b604051602081830303815290604052856040518563ffffffff1660e01b81526004016106869493929190613922565b600060405180830381600087803b1580156106a057600080fd5b505af11580156106b4573d6000803e3d6000fd5b505050506040513d6000823e601f3d9081017fffffffffffffffffffffffffffffffffffffffffffffffffffffffffffffffe01682016040526106fa9190810190612a41565b505050565b60006107b56107ae600160009054906101000a900473ffffffffffffffffffffffffffffffffffffffff1673ffffffffffffffffffffffffffffffffffffffff166397d63f936040518163ffffffff1660e01b815260040160206040518083038186803b15801561076f57600080fd5b505afa158015610783573d6000803e3d6000fd5b505050506040513d601f19601f820116820180604052506107a79190810190612a23565b6004611fa5565b6064612000565b905090565b6060806060806000600460008781526020019081526020016000209050806003018160040182600501836006018380548060200260200160405190810160405280929190818152602001828054801561084957602002820191906000526020600020905b815473ffffffffffffffffffffffffffffffffffffffff16815260019091019060200180831161081e575b505050505093508280548060200260200160405190810160405280929190818152602001828054801561089b57602002820191906000526020600020905b815481526020019060010190808311610887575b5050505050925081805480602002602001604051908101604052809291908181526020016000905b8282101561098c5760008481526020908190208301805460408051601f60027fffffffffffffffffffffffffffffffffffffffffffffffffffffffffffffffff6101006001871615020190941693909304928301859004850281018501909152818152928301828280156109785780601f1061094d57610100808354040283529160200191610978565b820191906000526020600020905b81548152906001019060200180831161095b57829003601f168201915b5050505050815260200190600101906108c3565b50505050915080805480602002602001604051908101604052809291908181526020016000905b82821015610a7c5760008481526020908190208301805460408051601f60027fffffffffffffffffffffffffffffffffffffffffffffffffffffffffffffffff610100600187161502019094169390930492830185900485028101850190915281815292830182828015610a685780601f10610a3d57610100808354040283529160200191610a68565b820191906000526020600020905b815481529060010190602001808311610a4b57829003601f168201915b5050505050815260200190600101906109b3565b5050505090509450945094509450509193509193565b600190565b60008160035410158015610aab5750600082115b610ae1576040517f08c379a000000000000000000000000000000000000000000000000000000000815260040161061790613b84565b6000828152600460205260409020600b81015460ff1615610b06576002915050610c54565b80600701544311610b1b576000915050610c54565b80600801544311610b30576001915050610c54565b80600a01548160090154111580610b515750610b4a6106ff565b8160090154105b15610b60576003915050610c54565b6002810154610b73576004915050610c54565b600b810154610100900460ff1615610b8f576007915050610c54565b6002810154600054604080517fc1a287e20000000000000000000000000000000000000000000000000000000081529051610c3e939273ffffffffffffffffffffffffffffffffffffffff169163c1a287e2916004808301926020929190829003018186803b158015610c0157600080fd5b505afa158015610c15573d6000803e3d6000fd5b505050506040513d601f19601f82011682018060405250610c399190810190612a23565b612042565b4210610c4e576006915050610c54565b60059150505b919050565b6000610c6482610a97565b90506007816007811115610c7457fe5b1415610cac576040517f08c379a000000000000000000000000000000000000000000000000000000000815260040161061790613c64565b600082815260046020526040902060025473ffffffffffffffffffffffffffffffffffffffff16331480610d885750610ce36112e2565b600180548382015473ffffffffffffffffffffffffffffffffffffffff9182169263782d6fe19290911690610d19904390612081565b6040518363ffffffff1660e01b8152600401610d36929190613971565b60206040518083038186803b158015610d4e57600080fd5b505afa158015610d62573d6000803e3d6000fd5b505050506040513d601f19601f82011682018060405250610d869190810190612a23565b105b610dbe576040517f08c379a000000000000000000000000000000000000000000000000000000000815260040161061790613bf4565b600b810180547fffffffffffffffffffffffffffffffffffffffffffffffffffffffffffffff0016600117905560005b6003820154811015610f025760005460038301805473ffffffffffffffffffffffffffffffffffffffff9092169163591fcdfe919084908110610e2d57fe5b60009182526020909120015460048501805473ffffffffffffffffffffffffffffffffffffffff9092169185908110610e6257fe5b9060005260206000200154856005018581548110610e7c57fe5b90600052602060002001866006018681548110610e9557fe5b9060005260206000200187600201546040518663ffffffff1660e01b8152600401610ec49594939291906139e6565b600060405180830381600087803b158015610ede57600080fd5b505af1158015610ef2573d6000803e3d6000fd5b505060019092019150610dee9050565b507f789cf55be980739dad1d0699b93b58e806b51c9d96619bfa8fe0a28abaa7b30c83604051610f329190613a74565b60405180910390a1505050565b60025473ffffffffffffffffffffffffffffffffffffffff1681565b6000604051610f69906138e3565b60408051918290038220828201909152601982527f4b4153534941484f4d4520476f7665726e6f7220416c706861000000000000006020909201919091527fb5c7b4d555a6df3f48aaa5a8f08a806e6e665410ca3a05ea95476b9e30d71681610fd06120c3565b30604051602001610fe49493929190613a82565b604051602081830303815290604052805190602001209050600060405161100a906138ee565b6040519081900381206110239189908990602001613ab7565b604051602081830303815290604052805190602001209050600082826040516020016110509291906138b2565b60405160208183030381529060405280519060200120905060006001828888886040516000815260200160405260405161108d9493929190613adf565b6020604051602081039080840390855afa1580156110af573d6000803e3d6000fd5b50506040517fffffffffffffffffffffffffffffffffffffffffffffffffffffffffffffffe0015191505073ffffffffffffffffffffffffffffffffffffffff8116611127576040517f08c379a000000000000000000000000000000000000000000000000000000000815260040161061790613c44565b611132818a8a611f73565b505050505050505050565b60025473ffffffffffffffffffffffffffffffffffffffff16331461118e576040517f08c379a000000000000000000000000000000000000000000000000000000000815260040161061790613c84565b600280547fffffffffffffffffffffffff0000000000000000000000000000000000000000169055565b600a90565b60025473ffffffffffffffffffffffffffffffffffffffff16331461120e576040517f08c379a000000000000000000000000000000000000000000000000000000000815260040161061790613ba4565b6000805460405173ffffffffffffffffffffffffffffffffffffffff90911691633a66f901918391906112459087906020016138f9565b604051602081830303815290604052856040518563ffffffff1660e01b81526004016112749493929190613922565b602060405180830381600087803b15801561128e57600080fd5b505af11580156112a2573d6000803e3d6000fd5b505050506040513d601f19601f820116820180604052506106fa9190810190612a23565b60015473ffffffffffffffffffffffffffffffffffffffff1681565b60006107b5600160009054906101000a900473ffffffffffffffffffffffffffffffffffffffff1673ffffffffffffffffffffffffffffffffffffffff166397d63f936040518163ffffffff1660e01b815260040160206040518083038186803b15801561134f57600080fd5b505afa158015611363573d6000803e3d6000fd5b505050506040513d601f19601f820116820180604052506107ae9190810190612a23565b60025473ffffffffffffffffffffffffffffffffffffffff1633146113d8576040517f08c379a000000000000000000000000000000000000000000000000000000000815260040161061790613b34565b60008054604080517f0e18b681000000000000000000000000000000000000000000000000000000008152905173ffffffffffffffffffffffffffffffffffffffff90921692630e18b6819260048084019382900301818387803b15801561143f57600080fd5b505af1158015611453573d6000803e3d6000fd5b50505050565b60005473ffffffffffffffffffffffffffffffffffffffff1681565b60035481565b60006114856112e2565b6001805473ffffffffffffffffffffffffffffffffffffffff169063782d6fe19033906114b3904390612081565b6040518363ffffffff1660e01b81526004016114d0929190613907565b60206040518083038186803b1580156114e857600080fd5b505afa1580156114fc573d6000803e3d6000fd5b505050506040513d601f19601f820116820180604052506115209190810190612a23565b11611557576040517f08c379a000000000000000000000000000000000000000000000000000000000815260040161061790613c34565b84518651148015611569575083518651145b8015611576575082518651145b6115ac576040517f08c379a000000000000000000000000000000000000000000000000000000000815260040161061790613bd4565b85516115e4576040517f08c379a000000000000000000000000000000000000000000000000000000000815260040161061790613c14565b6115ec6111b8565b86511115611626576040517f08c379a000000000000000000000000000000000000000000000000000000000815260040161061790613bb4565b3360009081526005602052604090205480156116d757600061164782610a97565b9050600181600781111561165757fe5b141561168f576040517f08c379a000000000000000000000000000000000000000000000000000000000815260040161061790613c54565b600081600781111561169d57fe5b14156116d5576040517f08c379a000000000000000000000000000000000000000000000000000000000815260040161061790613b94565b505b60006116e543610c39610a92565b905060006116f582610c3961054e565b60038054600101905590506117086122c4565b604051806101a0016040528060035481526020013373ffffffffffffffffffffffffffffffffffffffff168152602001600081526020018b81526020018a815260200189815260200188815260200184815260200183815260200160008152602001600081526020016000151581526020016000151581525090508060046000836000015181526020019081526020016000206000820151816000015560208201518160010160006101000a81548173ffffffffffffffffffffffffffffffffffffffff021916908373ffffffffffffffffffffffffffffffffffffffff160217905550604082015181600201556060820151816003019080519060200190611812929190612346565b506080820151805161182e9160048401916020909101906123d0565b5060a0820151805161184a916005840191602090910190612417565b5060c08201518051611866916006840191602090910190612470565b5060e082015181600701556101008201518160080155610120820151816009015561014082015181600a015561016082015181600b0160006101000a81548160ff02191690831515021790555061018082015181600b0160016101000a81548160ff021916908315150217905550905050806000015160056000836020015173ffffffffffffffffffffffffffffffffffffffff1673ffffffffffffffffffffffffffffffffffffffff168152602001908152602001600020819055507f7d84a6263ae0d98d3329bd7b46bb4e8d6f98cd35a7adb45c274c8b7fd5ebd5e08160000151338c8c8c8c89898e60405161196699989796959493929190613ca2565b60405180910390a15193505050505b95945050505050565b600461198982610a97565b600781111561199457fe5b146119cb576040517f08c379a000000000000000000000000000000000000000000000000000000000815260040161061790613b54565b6000818152600460208181526040808420845482517f6a42b8f80000000000000000000000000000000000000000000000000000000081529251919594611a4694429473ffffffffffffffffffffffffffffffffffffffff90931693636a42b8f8938084019390829003018186803b158015610c0157600080fd5b905060005b6003830154811015611c3757611c2f836003018281548110611a6957fe5b60009182526020909120015460048501805473ffffffffffffffffffffffffffffffffffffffff9092169184908110611a9e57fe5b9060005260206000200154856005018481548110611ab857fe5b600091825260209182902001805460408051601f60027fffffffffffffffffffffffffffffffffffffffffffffffffffffffffffffffff610100600187161502019094169390930492830185900485028101850190915281815292830182828015611b645780601f10611b3957610100808354040283529160200191611b64565b820191906000526020600020905b815481529060010190602001808311611b4757829003601f168201915b5050505050866006018581548110611b7857fe5b600091825260209182902001805460408051601f60027fffffffffffffffffffffffffffffffffffffffffffffffffffffffffffffffff610100600187161502019094169390930492830185900485028101850190915281815292830182828015611c245780601f10611bf957610100808354040283529160200191611c24565b820191906000526020600020905b815481529060010190602001808311611c0757829003601f168201915b5050505050866120c7565b600101611a4b565b50600282018190556040517f9a2e42fd6722813d69113e7d0079d3d940171428df7373df9c7f7617cfda289290610f329085908490613dd0565b6040516105bb906138ee565b611c856124c9565b50600082815260046020908152604080832073ffffffffffffffffffffffffffffffffffffffff85168452600c018252918290208251606081018452815460ff808216151583526101009091041615159281019290925260010154918101919091525b92915050565b60025473ffffffffffffffffffffffffffffffffffffffff163314611d3f576040517f08c379a000000000000000000000000000000000000000000000000000000000815260040161061790613b44565b6005611d4a82610a97565b6007811115611d5557fe5b14611d8c576040517f08c379a000000000000000000000000000000000000000000000000000000000815260040161061790613b64565b6000818152600460205260408120600b810180547fffffffffffffffffffffffffffffffffffffffffffffffffffffffffffff00ff16610100179055905b6003820154811015611f375760005460048301805473ffffffffffffffffffffffffffffffffffffffff90921691630825f38f919084908110611e0957fe5b9060005260206000200154846003018481548110611e2357fe5b60009182526020909120015460048601805473ffffffffffffffffffffffffffffffffffffffff9092169186908110611e5857fe5b9060005260206000200154866005018681548110611e7257fe5b90600052602060002001876006018781548110611e8b57fe5b9060005260206000200188600201546040518763ffffffff1660e01b8152600401611eba9594939291906139e6565b6000604051808303818588803b158015611ed357600080fd5b505af1158015611ee7573d6000803e3d6000fd5b50505050506040513d6000823e601f3d9081017fffffffffffffffffffffffffffffffffffffffffffffffffffffffffffffffe0168201604052611f2e9190810190612a41565b50600101611dca565b507f712ae1383f79ac853f8d882153778e0260ef8f03b504e2866e0593e04d2b291f82604051611f679190613a74565b60405180910390a15050565b6040517f08c379a000000000000000000000000000000000000000000000000000000000815260040161061790613c24565b600082611fb457506000611ce8565b82820282848281611fc157fe5b0414611ff9576040517f08c379a000000000000000000000000000000000000000000000000000000000815260040161061790613be4565b9392505050565b6000611ff983836040518060400160405280601a81526020017f536166654d6174683a206469766973696f6e206279207a65726f000000000000815250612273565b600082820183811015611ff9576040517f08c379a000000000000000000000000000000000000000000000000000000000815260040161061790613bc4565b6000828211156120bd576040517f08c379a000000000000000000000000000000000000000000000000000000000815260040161061790613c74565b50900390565b4690565b60005460405173ffffffffffffffffffffffffffffffffffffffff9091169063f2b0653790612102908890889088908890889060200161398c565b604051602081830303815290604052805190602001206040518263ffffffff1660e01b81526004016121349190613a74565b60206040518083038186803b15801561214c57600080fd5b505afa158015612160573d6000803e3d6000fd5b505050506040513d601f19601f820116820180604052506121849190810190612a05565b156121bb576040517f08c379a000000000000000000000000000000000000000000000000000000000815260040161061790613c04565b6000546040517f3a66f90100000000000000000000000000000000000000000000000000000000815273ffffffffffffffffffffffffffffffffffffffff90911690633a66f90190612219908890889088908890889060040161398c565b602060405180830381600087803b15801561223357600080fd5b505af1158015612247573d6000803e3d6000fd5b505050506040513d601f19601f8201168201806040525061226b9190810190612a23565b505050505050565b600081836122ae576040517f08c379a00000000000000000000000000000000000000000000000000000000081526004016106179190613b23565b5060008385816122ba57fe5b0495945050505050565b604051806101a0016040528060008152602001600073ffffffffffffffffffffffffffffffffffffffff1681526020016000815260200160608152602001606081526020016060815260200160608152602001600081526020016000815260200160008152602001600081526020016000151581526020016000151581525090565b8280548282559060005260206000209081019282156123c0579160200282015b828111156123c057825182547fffffffffffffffffffffffff00000000000000000000000000000000000000001673ffffffffffffffffffffffffffffffffffffffff909116178255602090920191600190910190612366565b506123cc9291506124e9565b5090565b82805482825590600052602060002090810192821561240b579160200282015b8281111561240b5782518255916020019190600101906123f0565b506123cc929150612525565b828054828255906000526020600020908101928215612464579160200282015b82811115612464578251805161245491849160209091019061253f565b5091602001919060010190612437565b506123cc9291506125ac565b8280548282559060005260206000209081019282156124bd579160200282015b828111156124bd57825180516124ad91849160209091019061253f565b5091602001919060010190612490565b506123cc9291506125cf565b604080516060810182526000808252602082018190529181019190915290565b61055291905b808211156123cc5780547fffffffffffffffffffffffff00000000000000000000000000000000000000001681556001016124ef565b61055291905b808211156123cc576000815560010161252b565b828054600181600116156101000203166002900490600052602060002090601f016020900481019282601f1061258057805160ff191683800117855561240b565b8280016001018555821561240b579182018281111561240b5782518255916020019190600101906123f0565b61055291905b808211156123cc5760006125c682826125f2565b506001016125b2565b61055291905b808211156123cc5760006125e982826125f2565b506001016125d5565b50805460018160011615610100020316600290046000825580601f106126185750612636565b601f0160209004906000526020600020908101906126369190612525565b50565b8035611ce881613f56565b600082601f83011261265557600080fd5b813561266861266382613e05565b613dde565b9150818183526020840193506020810190508385602084028201111561268d57600080fd5b60005b838110156126b957816126a38882612639565b8452506020928301929190910190600101612690565b5050505092915050565b600082601f8301126126d457600080fd5b81356126e261266382613e05565b81815260209384019390925082018360005b838110156126b9578135860161270a8882612819565b84525060209283019291909101906001016126f4565b600082601f83011261273157600080fd5b813561273f61266382613e05565b81815260209384019390925082018360005b838110156126b957813586016127678882612819565b8452506020928301929190910190600101612751565b600082601f83011261278e57600080fd5b813561279c61266382613e05565b915081818352602084019350602081019050838560208402820111156127c157600080fd5b60005b838110156126b957816127d78882612803565b84525060209283019291909101906001016127c4565b8035611ce881613f6a565b8051611ce881613f6a565b8035611ce881613f73565b8051611ce881613f73565b600082601f83011261282a57600080fd5b813561283861266382613e26565b9150808252602083016020830185838301111561285457600080fd5b61285f838284613eec565b50505092915050565b600082601f83011261287957600080fd5b815161288761266382613e26565b915080825260208301602083018583830111156128a357600080fd5b61285f838284613ef8565b8035611ce881613f7c565b6000602082840312156128cb57600080fd5b60006128d78484612639565b949350505050565b600080604083850312156128f257600080fd5b60006128fe8585612639565b925050602061290f85828601612803565b9150509250929050565b600080600080600060a0868803121561293157600080fd5b853567ffffffffffffffff81111561294857600080fd5b61295488828901612644565b955050602086013567ffffffffffffffff81111561297157600080fd5b61297d8882890161277d565b945050604086013567ffffffffffffffff81111561299a57600080fd5b6129a688828901612720565b935050606086013567ffffffffffffffff8111156129c357600080fd5b6129cf888289016126c3565b925050608086013567ffffffffffffffff8111156129ec57600080fd5b6129f888828901612819565b9150509295509295909350565b600060208284031215612a1757600080fd5b60006128d784846127f8565b600060208284031215612a3557600080fd5b60006128d7848461280e565b600060208284031215612a5357600080fd5b815167ffffffffffffffff811115612a6a57600080fd5b6128d784828501612868565b600060208284031215612a8857600080fd5b60006128d78484612803565b60008060408385031215612aa757600080fd5b6000612ab38585612803565b925050602061290f85828601612639565b60008060408385031215612ad757600080fd5b6000612ae38585612803565b925050602061290f858286016127ed565b600080600080600060a08688031215612b0c57600080fd5b6000612b188888612803565b9550506020612b29888289016127ed565b9450506040612b3a888289016128ae565b9350506060612b4b88828901612803565b92505060806129f888828901612803565b6000612b688383612b97565b505060200190565b6000611ff98383612d39565b6000612b688383612d1f565b612b9181613ec4565b82525050565b612b9181613e8b565b6000612bab82613e7e565b612bb58185613e82565b9350612bc083613e6c565b8060005b83811015612bee578151612bd88882612b5c565b9750612be383613e6c565b925050600101612bc4565b509495945050505050565b6000612c0482613e7e565b612c0e8185613e82565b935083602082028501612c2085613e6c565b8060005b85811015612c5a5784840389528151612c3d8582612b70565b9450612c4883613e6c565b60209a909a0199925050600101612c24565b5091979650505050505050565b6000612c7282613e7e565b612c7c8185613e82565b935083602082028501612c8e85613e6c565b8060005b85811015612c5a5784840389528151612cab8582612b70565b9450612cb683613e6c565b60209a909a0199925050600101612c92565b6000612cd382613e7e565b612cdd8185613e82565b9350612ce883613e6c565b8060005b83811015612bee578151612d008882612b7c565b9750612d0b83613e6c565b925050600101612cec565b612b9181613e96565b612b9181610552565b612b91612d3482610552565b610552565b6000612d4482613e7e565b612d4e8185613e82565b9350612d5e818560208601613ef8565b612d6781613f24565b9093019392505050565b600081546001811660008114612d8e5760018114612dd257612e11565b607f6002830416612d9f8187613e82565b7fffffffffffffffffffffffffffffffffffffffffffffffffffffffffffffff0084168152955050602085019250612e11565b60028204612de08187613e82565b9550612deb85613e72565b60005b82811015612e0a57815488820152600190910190602001612dee565b8701945050505b505092915050565b612b9181613ecb565b612b9181613ed6565b612b9181613ee1565b6000612e41603983613e82565b7f476f7665726e6f72416c7068613a3a5f5f61636365707441646d696e3a20736581527f6e646572206d75737420626520676f7620677561726469616e00000000000000602082015260400192915050565b6000612ea0602683613e82565b7f4f6e6c7920477561726469616e2063616e2065786563757465207472616e736181527f6374696f6e730000000000000000000000000000000000000000000000000000602082015260400192915050565b6000612eff604483613e82565b7f476f7665726e6f72416c7068613a3a71756575653a2070726f706f73616c206381527f616e206f6e6c792062652071756575656420696620697420697320737563636560208201527f6564656400000000000000000000000000000000000000000000000000000000604082015260600192915050565b6000612f84604583613e82565b7f476f7665726e6f72416c7068613a3a657865637574653a2070726f706f73616c81527f2063616e206f6e6c79206265206578656375746564206966206974206973207160208201527f7565756564000000000000000000000000000000000000000000000000000000604082015260600192915050565b6000613009600283610c54565b7f1901000000000000000000000000000000000000000000000000000000000000815260020192915050565b6000613042604c83613e82565b7f476f7665726e6f72416c7068613a3a5f5f6578656375746553657454696d656c81527f6f636b50656e64696e6741646d696e3a2073656e646572206d7573742062652060208201527f676f7620677561726469616e0000000000000000000000000000000000000000604082015260600192915050565b60006130c7601883613e82565b7f73657450656e64696e6741646d696e2861646472657373290000000000000000815260200192915050565b6000613100602983613e82565b7f476f7665726e6f72416c7068613a3a73746174653a20696e76616c696420707281527f6f706f73616c2069640000000000000000000000000000000000000000000000602082015260400192915050565b600061315f605983613e82565b7f476f7665726e6f72416c7068613a3a70726f706f73653a206f6e65206c69766581527f2070726f706f73616c207065722070726f706f7365722c20666f756e6420616e60208201527f20616c72656164792070656e64696e672070726f706f73616c00000000000000604082015260600192915050565b60006131e4604a83613e82565b7f476f7665726e6f72416c7068613a3a5f5f717565756553657454696d656c6f6381527f6b50656e64696e6741646d696e3a2073656e646572206d75737420626520676f60208201527f7620677561726469616e00000000000000000000000000000000000000000000604082015260600192915050565b6000613269602883613e82565b7f476f7665726e6f72416c7068613a3a70726f706f73653a20746f6f206d616e7981527f20616374696f6e73000000000000000000000000000000000000000000000000602082015260400192915050565b60006132c8601183613e82565b7f6164646974696f6e206f766572666c6f77000000000000000000000000000000815260200192915050565b6000613301604383610c54565b7f454950373132446f6d61696e28737472696e67206e616d652c75696e7432353681527f20636861696e49642c6164647265737320766572696679696e67436f6e74726160208201527f6374290000000000000000000000000000000000000000000000000000000000604082015260430192915050565b6000613386602783610c54565b7f42616c6c6f742875696e743235362070726f706f73616c49642c626f6f6c207381527f7570706f72742900000000000000000000000000000000000000000000000000602082015260270192915050565b60006133e5604483613e82565b7f476f7665726e6f72416c7068613a3a70726f706f73653a2070726f706f73616c81527f2066756e6374696f6e20696e666f726d6174696f6e206172697479206d69736d60208201527f6174636800000000000000000000000000000000000000000000000000000000604082015260600192915050565b600061346a602183613e82565b7f536166654d6174683a206d756c7469706c69636174696f6e206f766572666c6f81527f7700000000000000000000000000000000000000000000000000000000000000602082015260400192915050565b60006134c9602f83613e82565b7f476f7665726e6f72416c7068613a3a63616e63656c3a2070726f706f7365722081527f61626f7665207468726573686f6c640000000000000000000000000000000000602082015260400192915050565b6000613528604483613e82565b7f476f7665726e6f72416c7068613a3a5f71756575654f725265766572743a207081527f726f706f73616c20616374696f6e20616c72656164792071756575656420617460208201527f2065746100000000000000000000000000000000000000000000000000000000604082015260600192915050565b60006135ad602c83613e82565b7f476f7665726e6f72416c7068613a3a70726f706f73653a206d7573742070726f81527f7669646520616374696f6e730000000000000000000000000000000000000000602082015260400192915050565b600061360c601283613e82565b7f766f74696e672069732064697361626c65640000000000000000000000000000815260200192915050565b6000613645603f83613e82565b7f476f7665726e6f72416c7068613a3a70726f706f73653a2070726f706f73657281527f20766f7465732062656c6f772070726f706f73616c207468726573686f6c6400602082015260400192915050565b60006136a4602f83613e82565b7f476f7665726e6f72416c7068613a3a63617374566f746542795369673a20696e81527f76616c6964207369676e61747572650000000000000000000000000000000000602082015260400192915050565b6000613703605883613e82565b7f476f7665726e6f72416c7068613a3a70726f706f73653a206f6e65206c69766581527f2070726f706f73616c207065722070726f706f7365722c20666f756e6420616e60208201527f20616c7265616479206163746976652070726f706f73616c0000000000000000604082015260600192915050565b6000613788603683613e82565b7f476f7665726e6f72416c7068613a3a63616e63656c3a2063616e6e6f7420636181527f6e63656c2065786563757465642070726f706f73616c00000000000000000000602082015260400192915050565b60006137e7601583613e82565b7f7375627472616374696f6e20756e646572666c6f770000000000000000000000815260200192915050565b6000613820603683613e82565b7f476f7665726e6f72416c7068613a3a5f5f61626469636174653a2073656e646581527f72206d75737420626520676f7620677561726469616e00000000000000000000602082015260400192915050565b805160608301906138838482612d16565b5060208201516138966020850182612d16565b5060408201516114536040850182612d1f565b612b9181613ebe565b60006138bd82612ffc565b91506138c98285612d28565b6020820191506138d98284612d28565b5060200192915050565b6000611ce8826132f4565b6000611ce882613379565b60208101611ce88284612b97565b604081016139158285612b88565b611ff96020830184612d1f565b60a081016139308287612b97565b61393d6020830186612e2b565b818103604083015261394e816130ba565b905081810360608301526139628185612d39565b90506119756080830184612d1f565b604081016139158285612b97565b6119756060830184612d1f565b60a0810161399a8288612b97565b6139a76020830187612d1f565b81810360408301526139b98186612d39565b905081810360608301526139cd8185612d39565b90506139dc6080830184612d1f565b9695505050505050565b60a081016139f48288612b97565b613a016020830187612d1f565b8181036040830152613a138186612d71565b905081810360608301526139cd8185612d71565b60808082528101613a388187612ba0565b90508181036020830152613a4c8186612cc8565b90508181036040830152613a608185612c67565b905081810360608301526139dc8184612bf9565b60208101611ce88284612d1f565b60808101613a908287612d1f565b613a9d6020830186612d1f565b613aaa6040830185612d1f565b6119756060830184612b97565b60608101613ac58286612d1f565b613ad26020830185612d1f565b6128d76040830184612d16565b60808101613aed8287612d1f565b613afa60208301866138a9565b61397f6040830185612d1f565b60208101611ce88284612e19565b60208101611ce88284612e22565b60208082528101611ff98184612d39565b60208082528101611ce881612e34565b60208082528101611ce881612e93565b60208082528101611ce881612ef2565b60208082528101611ce881612f77565b60208082528101611ce881613035565b60208082528101611ce8816130f3565b60208082528101611ce881613152565b60208082528101611ce8816131d7565b60208082528101611ce88161325c565b60208082528101611ce8816132bb565b60208082528101611ce8816133d8565b60208082528101611ce88161345d565b60208082528101611ce8816134bc565b60208082528101611ce88161351b565b60208082528101611ce8816135a0565b60208082528101611ce8816135ff565b60208082528101611ce881613638565b60208082528101611ce881613697565b60208082528101611ce8816136f6565b60208082528101611ce88161377b565b60208082528101611ce8816137da565b60208082528101611ce881613813565b60608101611ce88284613872565b6101208101613cb1828c612d1f565b613cbe602083018b612b88565b8181036040830152613cd0818a612ba0565b90508181036060830152613ce48189612cc8565b90508181036080830152613cf88188612c67565b905081810360a0830152613d0c8187612bf9565b9050613d1b60c0830186612d1f565b613d2860e0830185612d1f565b818103610100830152613d3b8184612d39565b9b9a5050505050505050505050565b6101208101613d59828c612d1f565b613d66602083018b612b97565b613d73604083018a612d1f565b613d806060830189612d1f565b613d8d6080830188612d1f565b613d9a60a0830187612d1f565b613da760c0830186612d1f565b613db460e0830185612d16565b613dc2610100830184612d16565b9a9950505050505050505050565b604081016139158285612d1f565b60405181810167ffffffffffffffff81118282101715613dfd57600080fd5b604052919050565b600067ffffffffffffffff821115613e1c57600080fd5b5060209081020190565b600067ffffffffffffffff821115613e3d57600080fd5b506020601f919091017fffffffffffffffffffffffffffffffffffffffffffffffffffffffffffffffe0160190565b60200190565b60009081526020902090565b5190565b90815260200190565b6000611ce882613ea5565b151590565b80610c5481613f4c565b73ffffffffffffffffffffffffffffffffffffffff1690565b60ff1690565b6000611ce8825b6000611ce882613e8b565b6000611ce882613e9b565b6000611ce882610552565b82818337506000910152565b60005b83811015613f13578181015183820152602001613efb565b838111156114535750506000910152565b601f017fffffffffffffffffffffffffffffffffffffffffffffffffffffffffffffffe01690565b6008811061263657fe5b613f5f81613e8b565b811461263657600080fd5b613f5f81613e96565b613f5f81610552565b613f5f81613ebe56fea365627a7a72315820a8d514a25dd6d260d8fa508930e8a44edf451045635fd0816deae60df7cfcf9e6c6578706572696d656e74616cf564736f6c63430005110040",
  "source": "pragma solidity ^0.5.17;\npragma experimental ABIEncoderV2;\n\n// Original work from Compound: https://github.com/compound-finance/compound-protocol/blob/master/contracts/Governance/GovernorAlpha.sol\n// Modified to work in the DRAGONBALLZ system\n\n// all votes work on underlying _dragonballzBalances[address], not balanceOf(address)\n\n// Original audit: https://blog.openzeppelin.com/compound-alpha-governance-system-audit/\n// Overview:\n//    No Critical\n//    High:\n//      Issue:\n//        Approved proposal may be impossible to queue, cancel or execute\n//        Fixed with `proposalMaxOperations`\n//      Issue:\n//        Queued proposal with repeated actions cannot be executed\n//        Fixed by explicitly disallow proposals with repeated actions to be queued in the Timelock contract.\n//\n// Changes made by DRAGONBALLZ after audit:\n//    Formatting, naming, & uint256 instead of uint\n//    Since DRAGONBALLZ supply changes, updated quorum & proposal requirements\n//    If any uint96, changed to uint256 to match DRAGONBALLZ as opposed to comp\n\n\nimport \"../lib/SafeMath.sol\";\n\ncontract GovernorAlpha {\n    /// @notice The name of this contract\n    string public constant name = \"DRAGONBALLZ Governor Alpha\";\n\n    /// @notice The number of votes in support of a proposal required in order for a quorum to be reached and for a vote to succeed\n    function quorumVotes() public view returns (uint256) { return SafeMath.div(SafeMath.mul(dragonballz.initSupply(), 4), 100); } // 4% of DRAGONBALLZ\n\n    /// @notice The number of votes required in order for a voter to become a proposer\n    function proposalThreshold() public view returns (uint256) { return SafeMath.div(dragonballz.initSupply(), 100); } // 1% of DRAGONBALLZ\n\n    /// @notice The maximum number of actions that can be included in a proposal\n    function proposalMaxOperations() public pure returns (uint256) { return 10; } // 10 actions\n\n    /// @notice The delay before voting on a proposal may take place, once proposed\n    function votingDelay() public pure returns (uint256) { return 1; } // 1 block\n\n    /// @notice The duration of voting on a proposal, in blocks\n    function votingPeriod() public pure returns (uint256) { return 17280; } // ~3 days in blocks (assuming 15s blocks)\n\n    /// @notice The address of the Compound Protocol Timelock\n    TimelockInterface public timelock;\n\n    /// @notice The address of the Compound governance token\n    DRAGONBALLZInterface public dragonballz;\n\n    /// @notice The address of the Governor Guardian\n    address public guardian;\n\n    /// @notice The total number of proposals\n    uint256 public proposalCount;\n\n    struct Proposal {\n        /// @notice Unique id for looking up a proposal\n        uint256 id;\n\n        /// @notice Creator of the proposal\n        address proposer;\n\n        /// @notice The timestamp that the proposal will be available for execution, set once the vote succeeds\n        uint256 eta;\n\n        /// @notice the ordered list of target addresses for calls to be made\n        address[] targets;\n\n        /// @notice The ordered list of values (i.e. msg.value) to be passed to the calls to be made\n        uint[] values;\n\n        /// @notice The ordered list of function signatures to be called\n        string[] signatures;\n\n        /// @notice The ordered list of calldata to be passed to each call\n        bytes[] calldatas;\n\n        /// @notice The block at which voting begins: holders must delegate their votes prior to this block\n        uint256 startBlock;\n\n        /// @notice The block at which voting ends: votes must be cast prior to this block\n        uint256 endBlock;\n\n        /// @notice Current number of votes in favor of this proposal\n        uint256 forVotes;\n\n        /// @notice Current number of votes in opposition to this proposal\n        uint256 againstVotes;\n\n        /// @notice Flag marking whether the proposal has been canceled\n        bool canceled;\n\n        /// @notice Flag marking whether the proposal has been executed\n        bool executed;\n\n        /// @notice Receipts of ballots for the entire set of voters\n        mapping (address => Receipt) receipts;\n    }\n\n    /// @notice Ballot receipt record for a voter\n    struct Receipt {\n        /// @notice Whether or not a vote has been cast\n        bool hasVoted;\n\n        /// @notice Whether or not the voter supports the proposal\n        bool support;\n\n        /// @notice The number of votes the voter had, which were cast\n        uint256 votes;\n    }\n\n    /// @notice Possible states that a proposal may be in\n    enum ProposalState {\n        Pending,\n        Active,\n        Canceled,\n        Defeated,\n        Succeeded,\n        Queued,\n        Expired,\n        Executed\n    }\n\n    /// @notice The official record of all proposals ever proposed\n    mapping (uint256 => Proposal) public proposals;\n\n    /// @notice The latest proposal for each proposer\n    mapping (address => uint256) public latestProposalIds;\n\n    /// @notice The EIP-712 typehash for the contract's domain\n    bytes32 public constant DOMAIN_TYPEHASH = keccak256(\"EIP712Domain(string name,uint256 chainId,address verifyingContract)\");\n\n    /// @notice The EIP-712 typehash for the ballot struct used by the contract\n    bytes32 public constant BALLOT_TYPEHASH = keccak256(\"Ballot(uint256 proposalId,bool support)\");\n\n    /// @notice An event emitted when a new proposal is created\n    event ProposalCreated(uint256 id, address proposer, address[] targets, uint[] values, string[] signatures, bytes[] calldatas, uint256 startBlock, uint256 endBlock, string description);\n\n    /// @notice An event emitted when a vote has been cast on a proposal\n    event VoteCast(address voter, uint256 proposalId, bool support, uint256 votes);\n\n    /// @notice An event emitted when a proposal has been canceled\n    event ProposalCanceled(uint256 id);\n\n    /// @notice An event emitted when a proposal has been queued in the Timelock\n    event ProposalQueued(uint256 id, uint256 eta);\n\n    /// @notice An event emitted when a proposal has been executed in the Timelock\n    event ProposalExecuted(uint256 id);\n\n    constructor(address timelock_, address dragonballz_) public {\n        timelock = TimelockInterface(timelock_);\n        dragonballz = DRAGONBALLZInterface(dragonballz_);\n        guardian = msg.sender;\n    }\n\n    function propose(\n        address[] memory targets,\n        uint[] memory values,\n        string[] memory signatures,\n        bytes[] memory calldatas,\n        string memory description\n    )\n        public\n        returns (uint256)\n    {\n        require(dragonballz.getPriorVotes(msg.sender, sub256(block.number, 1)) > proposalThreshold(), \"GovernorAlpha::propose: proposer votes below proposal threshold\");\n        require(targets.length == values.length && targets.length == signatures.length && targets.length == calldatas.length, \"GovernorAlpha::propose: proposal function information arity mismatch\");\n        require(targets.length != 0, \"GovernorAlpha::propose: must provide actions\");\n        require(targets.length <= proposalMaxOperations(), \"GovernorAlpha::propose: too many actions\");\n\n        uint256 latestProposalId = latestProposalIds[msg.sender];\n        if (latestProposalId != 0) {\n          ProposalState proposersLatestProposalState = state(latestProposalId);\n          require(proposersLatestProposalState != ProposalState.Active, \"GovernorAlpha::propose: one live proposal per proposer, found an already active proposal\");\n          require(proposersLatestProposalState != ProposalState.Pending, \"GovernorAlpha::propose: one live proposal per proposer, found an already pending proposal\");\n        }\n\n        uint256 startBlock = add256(block.number, votingDelay());\n        uint256 endBlock = add256(startBlock, votingPeriod());\n\n        proposalCount++;\n        Proposal memory newProposal = Proposal({\n            id: proposalCount,\n            proposer: msg.sender,\n            eta: 0,\n            targets: targets,\n            values: values,\n            signatures: signatures,\n            calldatas: calldatas,\n            startBlock: startBlock,\n            endBlock: endBlock,\n            forVotes: 0,\n            againstVotes: 0,\n            canceled: false,\n            executed: false\n        });\n\n        proposals[newProposal.id] = newProposal;\n        latestProposalIds[newProposal.proposer] = newProposal.id;\n\n        emit ProposalCreated(\n            newProposal.id,\n            msg.sender,\n            targets,\n            values,\n            signatures,\n            calldatas,\n            startBlock,\n            endBlock,\n            description\n        );\n        return newProposal.id;\n    }\n\n    function queue(uint256 proposalId)\n        public\n    {\n        require(state(proposalId) == ProposalState.Succeeded, \"GovernorAlpha::queue: proposal can only be queued if it is succeeded\");\n        Proposal storage proposal = proposals[proposalId];\n        uint256 eta = add256(block.timestamp, timelock.delay());\n        for (uint256 i = 0; i < proposal.targets.length; i++) {\n            _queueOrRevert(\n                proposal.targets[i],\n                proposal.values[i],\n                proposal.signatures[i],\n                proposal.calldatas[i],\n                eta\n            );\n        }\n        proposal.eta = eta;\n        emit ProposalQueued(proposalId, eta);\n    }\n\n    function _queueOrRevert(\n        address target,\n        uint256 value,\n        string memory signature,\n        bytes memory data,\n        uint256 eta\n    )\n        internal\n    {\n        require(!timelock.queuedTransactions(\n              keccak256(\n                  abi.encode(\n                      target,\n                      value,\n                      signature,\n                      data,\n                      eta\n                  )\n              )\n          ),\n          \"GovernorAlpha::_queueOrRevert: proposal action already queued at eta\"\n        );\n\n        timelock.queueTransaction(target, value, signature, data, eta);\n    }\n\n    function execute(uint256 proposalId)\n        public\n        payable\n    {\n        require(msg.sender == guardian, \"Only Guardian can execute transactions\"); // Block Governance\n        require(state(proposalId) == ProposalState.Queued, \"GovernorAlpha::execute: proposal can only be executed if it is queued\");\n        Proposal storage proposal = proposals[proposalId];\n        proposal.executed = true;\n        for (uint256 i = 0; i < proposal.targets.length; i++) {\n            timelock.executeTransaction.value(proposal.values[i])(proposal.targets[i], proposal.values[i], proposal.signatures[i], proposal.calldatas[i], proposal.eta);\n        }\n        emit ProposalExecuted(proposalId);\n    }\n\n    function cancel(uint256 proposalId)\n        public\n    {\n        ProposalState state = state(proposalId);\n        require(state != ProposalState.Executed, \"GovernorAlpha::cancel: cannot cancel executed proposal\");\n\n        Proposal storage proposal = proposals[proposalId];\n        require(msg.sender == guardian || dragonballz.getPriorVotes(proposal.proposer, sub256(block.number, 1)) < proposalThreshold(), \"GovernorAlpha::cancel: proposer above threshold\");\n\n        proposal.canceled = true;\n        for (uint256 i = 0; i < proposal.targets.length; i++) {\n            timelock.cancelTransaction(proposal.targets[i], proposal.values[i], proposal.signatures[i], proposal.calldatas[i], proposal.eta);\n        }\n\n        emit ProposalCanceled(proposalId);\n    }\n\n    function getActions(uint256 proposalId)\n        public\n        view\n        returns (\n            address[] memory targets,\n            uint[] memory values,\n            string[] memory signatures,\n            bytes[] memory calldatas\n        )\n    {\n        Proposal storage p = proposals[proposalId];\n        return (p.targets, p.values, p.signatures, p.calldatas);\n    }\n\n    function getReceipt(uint256 proposalId, address voter)\n        public\n        view\n        returns (Receipt memory)\n    {\n        return proposals[proposalId].receipts[voter];\n    }\n\n    function state(uint256 proposalId)\n        public\n        view\n        returns (ProposalState)\n    {\n        require(proposalCount >= proposalId && proposalId > 0, \"GovernorAlpha::state: invalid proposal id\");\n        Proposal storage proposal = proposals[proposalId];\n        if (proposal.canceled) {\n            return ProposalState.Canceled;\n        } else if (block.number <= proposal.startBlock) {\n            return ProposalState.Pending;\n        } else if (block.number <= proposal.endBlock) {\n            return ProposalState.Active;\n        } else if (proposal.forVotes <= proposal.againstVotes || proposal.forVotes < quorumVotes()) {\n            return ProposalState.Defeated;\n        } else if (proposal.eta == 0) {\n            return ProposalState.Succeeded;\n        } else if (proposal.executed) {\n            return ProposalState.Executed;\n        } else if (block.timestamp >= add256(proposal.eta, timelock.GRACE_PERIOD())) {\n            return ProposalState.Expired;\n        } else {\n            return ProposalState.Queued;\n        }\n    }\n\n    function castVote(uint256 proposalId, bool support)\n        public\n    {\n        return _castVote(msg.sender, proposalId, support);\n    }\n\n    function castVoteBySig(\n        uint256 proposalId,\n        bool support,\n        uint8 v,\n        bytes32 r,\n        bytes32 s\n    )\n        public\n    {\n        bytes32 domainSeparator = keccak256(\n            abi.encode(\n                DOMAIN_TYPEHASH,\n                keccak256(bytes(name)),\n                getChainId(),\n                address(this)\n            )\n        );\n\n        bytes32 structHash = keccak256(\n            abi.encode(\n                BALLOT_TYPEHASH,\n                proposalId,\n                support\n            )\n        );\n\n        bytes32 digest = keccak256(\n            abi.encodePacked(\n                \"\\x19\\x01\",\n                domainSeparator,\n                structHash\n            )\n        );\n\n        address signatory = ecrecover(digest, v, r, s);\n        require(signatory != address(0), \"GovernorAlpha::castVoteBySig: invalid signature\");\n        return _castVote(signatory, proposalId, support);\n    }\n\n    function _castVote(\n        address voter,\n        uint256 proposalId,\n        bool support\n    )\n        internal\n    {\n        require(false, \"voting is disabled\"); // disable voting\n        require(state(proposalId) == ProposalState.Active, \"GovernorAlpha::_castVote: voting is closed\");\n        Proposal storage proposal = proposals[proposalId];\n        Receipt storage receipt = proposal.receipts[voter];\n        require(receipt.hasVoted == false, \"GovernorAlpha::_castVote: voter already voted\");\n        uint256 votes = dragonballz.getPriorVotes(voter, proposal.startBlock);\n\n        if (support) {\n            proposal.forVotes = add256(proposal.forVotes, votes);\n        } else {\n            proposal.againstVotes = add256(proposal.againstVotes, votes);\n        }\n\n        receipt.hasVoted = true;\n        receipt.support = support;\n        receipt.votes = votes;\n\n        emit VoteCast(voter, proposalId, support, votes);\n    }\n\n    function __acceptAdmin()\n        public\n    {\n        require(msg.sender == guardian, \"GovernorAlpha::__acceptAdmin: sender must be gov guardian\");\n        timelock.acceptAdmin();\n    }\n\n    function __abdicate()\n        public\n    {\n        require(msg.sender == guardian, \"GovernorAlpha::__abdicate: sender must be gov guardian\");\n        guardian = address(0);\n    }\n\n    function __queueSetTimelockPendingAdmin(\n        address newPendingAdmin,\n        uint256 eta\n    )\n        public\n    {\n        require(msg.sender == guardian, \"GovernorAlpha::__queueSetTimelockPendingAdmin: sender must be gov guardian\");\n        timelock.queueTransaction(address(timelock), 0, \"setPendingAdmin(address)\", abi.encode(newPendingAdmin), eta);\n    }\n\n    function __executeSetTimelockPendingAdmin(\n        address newPendingAdmin,\n        uint256 eta\n    )\n        public\n    {\n        require(msg.sender == guardian, \"GovernorAlpha::__executeSetTimelockPendingAdmin: sender must be gov guardian\");\n        timelock.executeTransaction(address(timelock), 0, \"setPendingAdmin(address)\", abi.encode(newPendingAdmin), eta);\n    }\n\n    function add256(uint256 a, uint256 b) internal pure returns (uint256) {\n        uint256 c = a + b;\n        require(c >= a, \"addition overflow\");\n        return c;\n    }\n\n    function sub256(uint256 a, uint256 b) internal pure returns (uint256) {\n        require(b <= a, \"subtraction underflow\");\n        return a - b;\n    }\n\n    function getChainId() internal pure returns (uint256) {\n        uint256 chainId;\n        assembly { chainId := chainid() }\n        return chainId;\n    }\n}\n\ninterface TimelockInterface {\n    function delay() external view returns (uint256);\n    function GRACE_PERIOD() external view returns (uint256);\n    function acceptAdmin() external;\n    function queuedTransactions(bytes32 hash) external view returns (bool);\n    function queueTransaction(address target, uint256 value, string calldata signature, bytes calldata data, uint256 eta) external returns (bytes32);\n    function cancelTransaction(address target, uint256 value, string calldata signature, bytes calldata data, uint256 eta) external;\n    function executeTransaction(address target, uint256 value, string calldata signature, bytes calldata data, uint256 eta) external payable returns (bytes memory);\n}\n\ninterface DRAGONBALLZInterface {\n    function getPriorVotes(address account, uint256 blockNumber) external view returns (uint256);\n    function initSupply() external view returns (uint256);\n    function _acceptGov() external;\n}\n",
  "sourcePath": "/home/udeve/workspace/kassia-home/contracts/governance/DRAGONBALLZGovernorAlpha.sol",
  "compiler": {
    "name": "solc",
    "version": "0.5.17+commit.d19bba13.Linux.g++"
  },
  "schemaVersion": "3.2.4",
  "updatedAt": "2020-09-18T19:59:47.064Z",
  "devdoc": {
    "methods": {}
  },
  "userdoc": {
    "methods": {
      "proposalMaxOperations()": {
        "notice": "The maximum number of actions that can be included in a proposal"
      },
      "proposalThreshold()": {
        "notice": "The number of votes required in order for a voter to become a proposer"
      },
      "quorumVotes()": {
        "notice": "The number of votes in support of a proposal required in order for a quorum to be reached and for a vote to succeed"
      },
      "votingDelay()": {
        "notice": "The delay before voting on a proposal may take place, once proposed"
      },
      "votingPeriod()": {
        "notice": "The duration of voting on a proposal, in blocks"
      }
    }
  }
}